:020000040800F2
:100000000000082495270008892200088D22000896
:1000100091220008952200089922000800000000A3
:100020000000000000000000000000009D22000809
:10003000A122000800000000A5220008A922000853
:10004000E5270008E5270008E5270008E527000860
:10005000E5270008E5270008E5270008E527000850
:10006000E5270008E5270008E5270008AD2200087D
:10007000E5270008E5270008E5270008E527000830
:10008000E5270008E5270008E5270008E527000820
:10009000E5270008E5270008E5270008E527000810
:1000A000E5270008E5270008E5270008E527000800
:1000B000B9220008E5270008E5270008E527000821
:1000C000E5270008E5270008E5270008E5270008E0
:1000D000E5270008E5270008E5270008E5270008D0
:1000E000E5270008E527000800000000E5270008D4
:1000F000E5270008E5270008E5270008E5270008B0
:10010000E5270008C5220008E5270008E5270008C4
:10011000E5270008E5270008E5270008E52700088F
:10012000E5270008E5270008E5270008E52700087F
:10013000E5270008E5270008E5270008E52700086F
:1001400000000000000000000000000000000000AF
:10015000E5270008E5270008E5270008E52700084F
:10016000E5270008E5270008E5270008E52700083F
:10017000E5270008E5270008E5270008E52700082F
:10018000E5270008E5270008E5270008E52700081F
:10019000E5270008D1220008E5270008E527000828
:1001A000E5270008E5270008E5270008E5270008FF
:1001B000E5270008E5270008E5270008E5270008EF
:1001C000E5270008E5270008E5270008E5270008DF
:1001D000E5270008DD220008E5270008E5270008DC
:1001E000E5270008E5270008E5270008E5270008BF
:1001F000E5270008E5270008E5270008E5270008AF
:10020000E5270008E5270008E5270008E52700089E
:10021000E5270008E5270008E5270008E52700088E
:10022000E5270008E5270008E52700080000000092
:10023000E5270008E527000800000000E527000882
:10024000E5270008E5270008E5270008E52700085E
:10025000E5270008E5270008E5270008E52700084E
:10026000E5270008E5270008E5270008E52700083E
:10027000E5270008E5270008E52700080000000042
:10028000E5270008E5270008E52700080000000032
:0802900000000000E527000852
:1002A00010B5054C237833B9044B13B10448AFF3B0
:1002B00000800123237010BD1804002400000000FA
:1002C00018CF030808B5034B1BB103490348AFF32C
:1002D000008008BD000000001C04002418CF0308A3
:1002E00010F8012B11F8013B012A28BF9A42F7D0E0
:1002F000D01A70470000000000000000000000005D
:1003000001F0FF01102A2BDB10F0070F08D010F8C6
:10031000013B013A8B422DD010F0070F42B3F6D1CA
:10032000F0B441EA012141EA014122F007047FF0E3
:1003300000070023F0E80256083C85EA010586EA3A
:10034000010685FA47F5A3FA87F586FA47F6A5FA76
:1003500087F68EB9EED1F0BC01F0FF0102F0070282
:1003600032B110F8013B013A83EA010313B1F8D12D
:100370000020704701387047002D06BF354603380E
:10038000073815F0010F07D1013015F4807F02BF47
:10039000013015F4C03F0130F0BC0138704700BF98
:1003A000034613F8012B002AFBD1181A01387047B5
:1003B00081F0004102E000BF83F0004330B54FEA16
:1003C00041044FEA430594EA050F08BF90EA020F83
:1003D0001FBF54EA000C55EA020C7FEA645C7FEA16
:1003E000655C00F0E2804FEA5454D4EB5555B8BF39
:1003F0006D420CDD2C4480EA020281EA030382EAAA
:10040000000083EA010180EA020281EA0303362D3B
:1004100088BF30BD11F0004F4FEA01314FF4801C0E
:100420004CEA113102D0404261EB410113F0004F20
:100430004FEA03334CEA133302D0524263EB4303D7
:1004400094EA050F00F0A780A4F10104D5F1200E75
:100450000DDB02FA0EFC22FA05F2801841F10001D0
:1004600003FA0EF2801843FA05F359410EE0A5F1A4
:1004700020050EF1200E012A03FA0EFC28BF4CF0D5
:10048000020C43FA05F3C01851EBE37101F000458B
:1004900007D54FF0000EDCF1000C7EEB00006EEB98
:1004A0000101B1F5801F1BD3B1F5001F0CD3490822
:1004B0005FEA30004FEA3C0C04F101044FEA445279
:1004C00012F5800F80F09A80BCF1004F08BF5FEA00
:1004D000500C50F1000041EB045141EA050130BDE0
:1004E0005FEA4C0C404141EB0101013C28BFB1F5F2
:1004F000801FE9D291F0000F04BF01460020B1FA3D
:1005000081F308BF2033A3F10B03B3F120020CDA0F
:100510000C3208DD02F1140CC2F10C0201FA0CF0ED
:1005200021FA02F10CE002F11402D8BFC2F1200C52
:1005300001FA02F120FA0CFCDCBF41EA0C01904008
:10054000E41AA2BF01EB0451294330BD6FEA040451
:100550001F3C1CDA0C340EDC04F11404C4F120023C
:1005600020FA04F001FA02F340EA030021FA04F34E
:1005700045EA030130BDC4F10C04C4F1200220FAA5
:1005800002F001FA04F340EA0300294630BD21FAE3
:1005900004F0294630BD94F0000F83F4801306BFA9
:1005A00081F480110134013D4EE77FEA645C18BF9D
:1005B0007FEA655C29D094EA050F08BF90EA020F34
:1005C00005D054EA000C04BF1946104630BD91EA2C
:1005D000030F1EBF0021002030BD5FEA545C05D12F
:1005E0004000494128BF41F0004130BD14F580046E
:1005F0003CBF01F5801130BD01F0004545F0FE41E2
:1006000041F470014FF0000030BD7FEA645C1ABF16
:10061000194610467FEA655C1CBF0B46024650EA4D
:10062000013406BF52EA033591EA030F41F4002179
:1006300030BD00BF90F0000F04BF0021704730B5FF
:100640004FF4806404F132044FF000054FF00001D4
:1006500050E700BF90F0000F04BF0021704730B595
:100660004FF4806404F1320410F0004548BF40426A
:100670004FF000013EE700BF42004FEAE2014FEABF
:1006800031014FEA02701FBF12F07F4393F07F4F9A
:1006900081F06051704732F07F4208BF704793F09D
:1006A0007F4F04BF41F40021704730B54FF46074B0
:1006B00001F0004521F000411CE700BF50EA0102B3
:1006C00008BF704730B54FF000050AE050EA01025C
:1006D00008BF704730B511F0004502D5404261EBCC
:1006E00041014FF4806404F132045FEA915C3FF40D
:1006F000D8AE4FF003025FEADC0C18BF03325FEAAA
:10070000DC0C18BF033202EBDC02C2F1200300FA5A
:1007100003FC20FA02F001FA03FE40EA0E0021FA7F
:1007200002F11444BDE600BF53B94AB9002908BF1D
:1007300000281CBF4FF0FF314FF0FF3000F0A8B988
:10074000ADF1080C6DE904CE00F03EF8DDF804E0F0
:10075000DDE9022304B0704708B502460B4643ECBE
:10076000172BB5EEC07BF1EE10FA03D4BDE80840BC
:1007700000F00AB8B1EE477B51EC170B00F004F81B
:10078000404261EB410108BD9FED0B6B41EC170B43
:100790009FED0B5B27EE066BBCEEC66BB8EE464BCF
:1007A000A4EE457BFCEEC77B16EE101A17EE900AFE
:1007B000704700BFAFF30080000000000000F03D74
:1007C000000000000000F0412DE9F047089E0D46B2
:1007D00004460F46002B4AD18A42944665D9B2FAA4
:1007E00082F343B102FA03FCC3F120029F4020FAD6
:1007F00002F217439C404FEA1C4E1FFA8CF5B7FBE0
:10080000FEF1220C0EFB117742EA074201FB05F0D4
:1008100090420AD91CEB020201F1FF3780F01C81E3
:10082000904240F2198102396244121AA4B2B2FB1A
:10083000FEF00EFB102244EA024400FB05F5A5423F
:100840000AD91CEB040400F1FF3280F00781A542B5
:1008500040F204816444023840EA0140641B0021F4
:100860001EB1DC400023C6E90043BDE8F0878B429F
:1008700008D9002E00F0ED800021C6E900050846E9
:10088000BDE8F087B3FA83F1002949D1AB4202D326
:10089000824200F2F880841A65EB030201201746B9
:1008A000002EE2D0C6E90047DFE702B9FFDEB2FA68
:1008B00082F3002B40F090808A1A4FEA1C471FFAFF
:1008C0008CFE0121B2FBF7F507FB1520220C42EA52
:1008D00000420EFB05F0904208D91CEB020205F124
:1008E000FF3802D2904200F2CB804546121AA4B2E1
:1008F000B2FBF7F007FB102244EA02440EFB00FEB5
:10090000A64508D91CEB040400F1FF3202D2A6452B
:1009100000F2BB801046A4EB0E0440EA05409FE7BE
:10092000C1F120078B4022FA07FC4CEA030C05FAC0
:1009300001F420FA07F3FD404FEA1C492343B5FBBD
:10094000F9F81FFA8CFE09FB18551C0C44EA054403
:1009500008FB0EF5A54202FA01F200FA01F00BD9EC
:100960001CEB040408F1FF3A80F08880A54240F2B5
:100970008580A8F102086444641B9DB2B4FBF9F3BE
:1009800009FB134445EA044403FB0EFEA64508D9BF
:100990001CEB040403F1FF356CD2A6456AD9023B77
:1009A000644443EA0843A3FB0295A4EB0E04AC4263
:1009B000C846AE4656D353D056B1B0EB080264EBEE
:1009C0000E0404FA07F7CA40CC401743C6E9007486
:1009D00018460021BDE8F087C3F1200102FA03FCAC
:1009E00020FA01F225FA01F19D402A434FEA1C4703
:1009F0001FFA8CFEB1FBF7F007FB1015110C41EA52
:100A0000054100FB0EF58D4204FA03F408D91CEBF6
:100A1000010100F1FF382FD28D422DD902386144F7
:100A2000491B92B2B1FBF7F507FB151142EA0142EF
:100A300005FB0EF1914208D91CEB020205F1FF38CB
:100A400016D2914214D9023D6244521A45EA00413D
:100A500038E73146304608E73946E6E61046FBE619
:100A60004845A9D2B9EB020865EB0C0E013BA3E7A0
:100A70004546EAE72B4694E74046D1E7D0467BE778
:100A8000023D624432E708460AE76444023842E71E
:100A9000704700BF2DE9F0475F1A1D46131A82B058
:100AA0000137744C8246914603FB07772A230E4692
:100AB00000224FF4006170488DF807301436DDF8DD
:100AC000288003F0B9FD642301220DF1070120689D
:100AD00007F03AFF01224FEA1A234FF400616648FB
:100AE000B6B28DF8073003F0A7FD642301220DF1A3
:100AF0000701206807F028FF01224FF400615E48DB
:100B00008DF807A003F098FD642301220DF1070181
:100B1000206807F019FF01224FEA19234FF4006102
:100B2000554814358DF8073003F086FD6423012203
:100B30000DF10701206807F007FF01224FF4006163
:100B40004D488DF8079003F077FD642301220DF1E5
:100B50000701206807F0F8FE2B2300224FF4006104
:100B60004548ADB28DF8073003F066FD64230122DD
:100B70000DF10701206807F0E7FE0122330A4FF468
:100B800000613D488DF8073003F056FD64230122D3
:100B90000DF10701206807F0D7FE01224FF4006134
:100BA00035488DF8076003F047FD642301220DF1FD
:100BB0000701206807F0C8FE01222B0A4FF40061EC
:100BC0002D488DF8073003F037FD642301220DF125
:100BD0000701206807F0B8FE01224FF400612648A3
:100BE0008DF8075003F028FD642301220DF1070161
:100BF000206807F0A9FE2C2300224FF400611E4854
:100C00008DF8073003F018FD64230DF10701012270
:100C1000206807F099FE01224FF40061164803F0A6
:100C20000BFD0F232068C36007F0D6FDB7F5803FAA
:100C30004FF47A7318D347F230524146206807F0D8
:100C400083FE0E4A4EF660214FF47A733A442068D0
:100C5000414492B207F078FE20680723C36002B0D7
:100C6000BDE8F04707F0B8BDBAB24146206807F0CA
:100C70006BFEF1E70000002400240258D08AFFFF39
:100C80002DE9F04FED4E83B0ED4D36233046002276
:100C90004FF4006100278DF8073003F0CDFC64238A
:100CA0000DF107010122286807F04EFE30460122AF
:100CB0004FF400618DF8077003F0BEFC0DF10701E1
:100CC00064230122286807F03FFE3A233A46304663
:100CD0004FF400618DF8073003F0AEFC0DF1070111
:100CE0006423012228684FF00C0907F02DFE05232C
:100CF000304601224FF400618DF8073003F09CFC70
:100D00000DF10701642301222868332407F01CFE3B
:100D1000B2233A4630464FF400618DF8073003F0B5
:100D20008BFC64230DF10701012228684FF0D00AE3
:100D300007F00AFE304601224FF400618DF807905B
:100D400003F07AFC64230DF107010122286807F003
:100D5000FBFD304601224FF400618DF8079003F04F
:100D60006BFC64230DF107010122286807F0ECFDFC
:100D7000304601224FF400618DF8077003F05CFCEF
:100D800064230DF107010122286807F0DDFD3046DC
:100D900001224FF400618DF8074003F04DFC6423FD
:100DA0000DF107010122286807F0CEFD304601222F
:100DB0004FF400618DF8074003F03EFC0DF1070190
:100DC00064230122286807F0BFFDB7233A46304666
:100DD0004FF400618DF8073003F02EFC0DF1070190
:100DE000642301222868012407F0AEFD3523304634
:100DF00001224FF400618DF8073003F01DFC0DF166
:100E000007016423012228684FF00D0807F09CFDBC
:100E1000BB233A4630464FF400618DF8073003F0AB
:100E20000BFC0DF107016423012228684FF0110B20
:100E300007F08AFD1923304601224FF400618DF836
:100E4000073003F0F9FB0DF1070164230122286844
:100E500007F07AFDC0233A4630464FF400618DF822
:100E6000073003F0E9FB0DF1070164230122286834
:100E700007F06AFD4FF02C03304601224FF4006169
:100E80008DF8073003F0D8FB0DF107016423012230
:100E9000286807F059FDC2233A4630464FF40061F6
:100EA0008DF8073003F0C8FB642322460DF10701DB
:100EB000286807F049FD224630464FF400618DF85E
:100EC000074003F0B9FB22460DF1070164232868AF
:100ED00007F03AFDC3233A4630464FF400618DF8DF
:100EE000073003F0A9FB22460DF1070164232868AF
:100EF00007F02AFD1223224630464FF400618DF898
:100F0000073003F099FB22460DF10701642328689E
:100F100007F01AFDC4233A4630464FF400618DF8BD
:100F2000073003F089FB642322460DF1070128688E
:100F300007F00AFD4FF0200230464FF400618DF8B3
:100F40000720224603F078FB22460DF107016423B7
:100F5000286807F0F9FCC6233A4630464FF4006192
:100F60008DF8073003F068FB22460DF1070164237A
:100F7000286807F0E9FC0F23224630464FF4006151
:100F80008DF8073003F058FB642322460DF107016A
:100F9000286807F0D9FC3A4630464FF400618DF8D6
:100FA00007A003F049FB22460DF1070164232868DE
:100FB00007F0CAFCA423224630464FF400618DF8A6
:100FC000073003F039FB22460DF10701642328683E
:100FD00007F0BAFCA123224630464FF400618DF899
:100FE000073003F029FB22460DF10701642328682E
:100FF00007F0AAFCE0233A4630464FF400618DF832
:10100000073003F019FB642322460DF1070128681D
:1010100007F09AFC224630464FF400618DF807A095
:1010200003F00AFB642322460DF10701286807F04C
:101030008BFC4FF004012246304603E000240258A6
:10104000000000248DF807104FF4006103F0F4FA5B
:101050000DF10700642322460146286807F074FC5E
:10106000224630464FF400618DF8078003F0E4FA21
:101070000DF10700642322460146286807F064FC4E
:10108000224630464FF400618DF807B003F0D4FAE1
:101090000DF10700642322460146286807F054FC3E
:1010A0004FF0130022464FF400618DF807003046E0
:1010B00003F0C2FA0DF1070C22466423614628684A
:1010C00007F042FC2B23224630464FF400618DF896
:1010D000073003F0B1FA0DF1070C64232246614694
:1010E000286807F031FC4FF03F0C224630464FF4A1
:1010F00000618DF807C003F09FFA0DF1070E22463C
:1011000064237146286807F01FFC542322463046AA
:101110004FF400618DF8073003F08EFA0DF1070EE1
:10112000224664237146286807F00EFC4C232246B1
:1011300030464FF400618DF8073003F07DFA0DF171
:10114000070E224664237146286807F0FDFB18232A
:10115000224630464FF400618DF8073003F06CFAF8
:101160000DF1070E642322467146286807F0ECFB58
:10117000224630464FF400618DF8078003F05CFA98
:101180000DF1070E22466423286871464FF01F08B0
:1011900007F0DAFB0B23224630464FF400618DF84E
:1011A000073003F049FA0DF1070E64232246714619
:1011B000286807F0C9FB224630464FF400618DF8DD
:1011C000078003F039FA0DF1070E642322462868E0
:1011D000714607F0B9FB4FF0230E224630464FF41C
:1011E00000618DF807E003F027FA22460DF10701B0
:1011F0006423286807F0A8FBE1233A4630464FF401
:1012000000618DF8073003F017FA642322460DF1D0
:101210000701286807F098FB8DF807A00DF1070A71
:10122000224630464FF4006103F006FA642322465A
:101230005146286807F088FB4FF0040122463046EB
:101240008DF807104FF4006103F0F6F9642322468D
:101250005146286807F078FB224630464FF400617B
:101260008DF8079003F0E8F9642322465146286878
:1012700007F06AFB224630464FF400618DF807B054
:1012800003F0DAF9642322465146286807F05CFB34
:101290004FF0130022464FF400618DF807003046EE
:1012A00003F0CAF9224651466423286807F04CFB34
:1012B0004FF02C03224630464FF400618DF8073082
:1012C00003F0BAF9642322465146286807F03CFB34
:1012D0004FF03F0C224630464FF400618DF807C0B6
:1012E00003F0AAF9224651466423286807F02CFB34
:1012F0004423224630464FF400618DF8073003F056
:101300009BF9224651466423286807F01DFB5123B0
:10131000224630464FF400618DF8073003F08CF917
:10132000224651466423286807F00EFB2F232246ED
:1013300030464FF400618DF8073003F07DF96423E7
:1013400022465146286807F0FFFA224630464FF4FD
:1013500000618DF8078003F06FF96423224651463F
:10136000286807F0F1FA224630464FF400618DF804
:10137000078003F061F9642322465146286807F08C
:10138000E3FA4FF0200230464FF400618DF8072059
:10139000224603F051F9642322465146286807F09B
:1013A000D3FA4FF0230E224630464FF400618DF8F9
:1013B00007E003F041F9224651466423286807F00C
:1013C000C3FA21233A4630464FF400618DF80730C6
:1013D00003F032F9642322465146286807F0B4FA34
:1013E0003A4630464FF400618DF807B003F024F917
:1013F000224651466423286807F0A6FA782001F0B7
:101400005BFA29233A4630464FF400618DF80730E5
:1014100003F012F9514622466423286807F094FA33
:1014200022464021024803B0BDE8F04F03F004B962
:10143000001C0258002324480421012210B5234C2B
:101440008AB08382009303930161826103774363CF
:1014500080F83830C0E90043C0E90233C0E90933FD
:10146000C0E90B33CDE90133CDE90433CDE90633CF
:10147000CDE9083301F026FDD8B9002369461248AA
:10148000009301F02DFED8B901200622002340F27E
:10149000FF7403A98DF82530CDE9030204220A4820
:1014A000CDE90534CDE9072301F028FA20B90AB0C7
:1014B00010BD00F075FDE0E700F072FD0AB010BD50
:1014C00000F06EFDE0E700BF34040024002002407D
:1014D000124B02689A4200D07047114B82B04FF015
:1014E0008071D3F8D820084642F02002C3F8D820F3
:1014F000D3F8D82002F020020092009AD3F8E0201E
:1015000042F00102C3F8E020D3F8E03003F0010319
:101510000193019B02B001F0E7B900BF0020024037
:10152000004402580C4B00220B20114610B5D3F892
:10153000D84082B044F00104C3F8D840D3F8D83082
:1015400003F001030193019B01F044FE0B2002B064
:10155000BDE8104001F07CBE0044025808B51248B6
:10156000002301221149C365C0E91132C0E91333D8
:10157000C0E91533C0E90013C0E9022302F074FE8C
:1015800028B90121084802F0AFFE40B908BD00F0BB
:1015900007FD0121044802F0A7FE0028F6D0BDE8AF
:1015A000084000F0FDBC00BF980400240010005269
:1015B0000A4B02689A4200D07047094B82B0D3F8B8
:1015C000D42042F01002C3F8D420D3F8D43003F072
:1015D00010030193019B02B0704700BF001000523E
:1015E00000440258F0B537488BB00024042207238A
:1015F000354DC4610221C26005930291089102A990
:10160000CDE90332C0E9005403224FF40064022301
:1016100004624FF48054CDE9062301221023446272
:101620004FF400548260402203614FF4C07384621F
:10163000C0E9052307F012F800283FD1234C01250B
:101640000026102721464FF480521E480196E6607E
:101650002560C4E9017507F02BF8284601F02CF944
:10166000022321464FF4805216482360E660C4E905
:10167000017507F01DF803220823214622604FF46C
:101680008052104867601027E6600426A36007F0C8
:101690000FF84FF40D7321464FF48052094801931F
:1016A000019BA560E360C4E9006707F001F84FF40F
:1016B000E161044807F01CF80BB0F0BD00F070FCCD
:1016C000BCE700BF18050024404100520805002473
:1016D0003A480023D0B50168B6B0CDE90233CDE970
:1016E0000433069309B136B0D0BD0123B82203609C
:1016F00008A838F0E0F84FF0807307A8079304F0CB
:101700001FFF002857D12E4B4FF6837002210C2467
:10171000D3F8D4200026032742F48052C3F8D42003
:10172000D3F8D430069403F48053CDE90201019339
:1017300002A92448019BCDE9046702F045FE48F266
:101740003312022302A920480694CDE90223CDE9F1
:10175000046702F039FE4CF20372022302A91B480F
:101760000694CDE90223CDE9046702F02DFE4FF681
:101770003F02022302A916480694CDE90223CDE9CF
:10178000046702F021FE0122022302A911480694F7
:10179000CDE90223CDE9046702F016FE0C220223F4
:1017A00002A90D480694CDE90467CDE9022302F0B1
:1017B0000BFE36B0D0BD00F0F3FBA4E7000500241B
:1017C000004402580010025800180258000C025839
:1017D0000014025800080258001C0258574B4FF4DE
:1017E0000061F0B5002491B0554D01270E94554E7F
:1017F0002846CDE90A44CDE90C44D3F8E02042F074
:101800000402C3F8E020D3F8E02002F004020092C2
:10181000009AD3F8E02042F01002C3F8E020D3F899
:10182000E02002F010020192019AD3F8E02042F089
:101830000202C3F8E020D3F8E02002F00202029294
:10184000029AD3F8E02042F00102C3F8E020D3F876
:10185000E02002F001020392039AD3F8E02042F064
:101860004002C3F8E020D3F8E02002F040020492E6
:10187000049AD3F8E02042F00802C3F8E020D3F83D
:10188000E02002F008020592059AD3F8E02042F029
:101890002002C3F8E020D3F8E02002F020020692F4
:1018A000069AD3F8E02042F08002C3F8E020D3F893
:1018B000E02002F080020792079AD3F8E02042F479
:1018C0008062C3F8E020D3F8E02002F4806208923E
:1018D000089AD3F8E02042F40072C3F8E0202246D0
:1018E000D3F8E03003F400730993099B02F0A4FEDF
:1018F00022463046402102F09FFE4FF40063284606
:1019000003250AA90A930C940B970D9502F05CFD30
:10191000022302220AA90C480C930023CDE90A23D2
:1019200002F052FD40230AA930460B970A93CDE9F5
:101930000C4502F049FD11B0F0BD00BF0044025853
:1019400000240258001C0258000402580D480E4B97
:1019500000B583B0036003F01FF878B90B4BD3F8E0
:10196000D42042F02002C3F8D420D3F8D43003F0BE
:1019700020030193019B03B05DF804FB00F010FB12
:10198000ECE700BF4C050024003000520044025830
:101990000A4B02689A4200D07047094B82B0D3F8D4
:1019A000D42042F02002C3F8D420D3F8D43003F07E
:1019B00020030193019B02B0704700BF003000522A
:1019C000004402582DE9F8430020DFF8D0900DF0D4
:1019D000BDF8034600202C4CDFF8C4802B4FC9F81B
:1019E00000300DF0B3F803460020294EC8F800304F
:1019F0000DF0ACF8386020462BF064FF204605213E
:101A0000244D2CF045FA2046FF212CF091F94FF699
:101A1000FF71204631802CF081F900222146D9F84F
:101A2000000011F06FFC28462BF04CFF28460521E2
:101A3000194C2CF02DFA2846FF212CF079F94FF49F
:101A4000FC61284631802CF069F900222946D8F83B
:101A5000000011F057FC20462BF034FF20460521F2
:101A60002CF016FA2046FF212CF062F91F232046A5
:101A7000194633802CF052F9214638680022BDE81F
:101A8000F84311F03FBC00BFD0050024C40500247A
:101A9000A4050024D8050024E0050024BC0500248A
:101AA000C005002470B5654D654C286832F016FEFF
:101AB0000121206032F026FF2068042132F0EEFE82
:101AC0002068F0215F4E0DF057FE206814210DF0C4
:101AD0006DFE20685C4932F097FE28230022092120
:101AE00020680DF0EBFE594C286832F0F7FD01211B
:101AF000206032F007FF2068042132F0CFFE20681A
:101B0000F0210DF039FE206814210DF04FFE206801
:101B10004F4932F079FE6FF0270320680022092137
:101B20000DF0CCFE00223146206812F0A9FB494C92
:101B3000286832F0D3FD0121206032F0E3FE2068F6
:101B4000042132F0ABFE2068F021434D0DF014FE6D
:101B5000206814210DF02AFE2068404932F054FE1E
:101B60000023206809211A460DF0A8FE00223C49F6
:101B7000206812F085FB3B4C286834F055FC64214A
:101B800020600DF0F9FD206810210DF00FFE206897
:101B9000642200212EF000FE334B206800221968D9
:101BA0002EF06AFD6FF031030022206809212F4CCE
:101BB0000DF084FE286832F091FD0121206032F0A2
:101BC000A1FE2068042132F069FE2068F021284D32
:101BD0000DF0D2FD206814210DF0E8FD20682549A4
:101BE00032F012FE6FF013032068002209210DF07D
:101BF00065FE31460022206812F042FB28462BF099
:101C000061FE4FF478431C4A2846194613802CF095
:101C100085F84FF480322946206811F073FB206864
:101C200001210FF075FD20680C210FF085FD206863
:101C30000121BDE870400FF08FBD00BFBC0500243E
:101C4000A8050024D401002458CF0308AC050024C3
:101C500070CF0308B0050024C00500248CCF030812
:101C6000F0010024C8050024CC050024B40500249C
:101C7000E8050024ACCF0308A4050024054B8342EB
:101C800000D07047044A012013680344136029F010
:101C9000EFB900BF70070024B80500240000000061
:101CA00010B59EB04C2200210AA837F004FE202275
:101CB000002102A837F0FFFD022003F031FD2A4A7F
:101CC00000212A4B0191916941F440419161916950
:101CD00001F440410191D96A41F00101D962DB6A06
:101CE00003F001030193019B93699B04FCD5204AF7
:101CF000052108240AA8936A23F0030343F0020392
:101D000093620223002215911793C0211993169113
:101D10001C929FED137BCDE9133330238DED0A7BAD
:101D20001893CDE91A4203F0ABFD034608B172B631
:101D3000FEE73F21402204934FF480630291032188
:101D400002A8079203910421CDE90542CDE90832AA
:101D500004F00AF908B172B6FEE71EB010BD00BF6C
:101D60000100000000000100004802580004005873
:101D7000004402580000000000B5B1B0A0220021CC
:101D800007A837F098FD4FF4022005220A23782196
:101D90009FED0B7BCDE90002CDE9021380224FF4C9
:101DA00080336846069218938DED047B04F0C8FBDF
:101DB00008B172B6FEE731B05DF804FBAFF3008006
:101DC000050000000200000000B5002385B00125D9
:101DD0000424CDE90033CDE9023301F05DFA4FF080
:101DE0001052664B6846ADF80050CDE90123644BB4
:101DF000039301F06FFA4FF0405368468DF801509D
:101E0000019301F067FA02214FF060520F236846F8
:101E10008DF8011001928DF8083001F05BFA032172
:101E20004FF04042172368468DF8011001928DF85B
:101E3000083001F04FFA4FF01042162368468DF833
:101E4000014001928DF8083001F044FA204601F07B
:101E500031FA4C4A536913F4003311D1BFF34F8F59
:101E6000BFF36F8FC2F85032BFF34F8FBFF36F8F46
:101E7000536943F400335361BFF34F8FBFF36F8F48
:101E80004048436913F4803324D1C0F88430BFF351
:101E90004F8FD0F8805043F6E076C5F34E34C5F34B
:101EA000C905640104EA06012B4641EA8372013B3D
:101EB000C0F860225A1CF8D1203C14F1200FF1D157
:101EC000BFF34F8F436943F480334361BFF34F8FB8
:101ED000BFF36F8F00F0AEFC2B4CFFF7E1FE2B4EF3
:101EE000FFF74AFF2A4DFFF779FCFFF7A3FAFFF748
:101EF00079FBFFF72BFD00F055F800F0BBFA00F07E
:101F0000F1FA00F029FB00F0ABFB0AF075F8FFF7DF
:101F100009FB00F0C7F80AF0E5FFFFF71FFB1D48BB
:101F200007F048F80CF0E6FD0BF0C2FAFFF74AFDA7
:101F3000194B18680BF0F6FAFFF7B4FD314620682C
:101F400032F062FC2BF0CAFF4FF47A7000F0B4FC60
:101F50002946206832F058FC2BF0C0FF4FF47A700D
:101F600000F0AAFC0D49206832F04EFC2BF0B6FFC1
:101F70004FF47A7000F0A0FCE0E700BF120001030C
:101F80000000010100ED00E0A8050024C4CF030813
:101F900058CF030870070024BC050024DCCF0308D9
:101FA00072B6FEE7054B002205484FF480415A61A6
:101FB0001860C3E90122C3E903127047F005002449
:101FC00000700052D0B5B8B000210446BC2209A868
:101FD0000891CDE90411CDE9061137F06CFC2D4BC9
:101FE00022689A4201D038B0D0BD4FF4803309A89E
:101FF000099304F0A5FA002848D1274B4FF4F85074
:1020000002210C24D3F8D4200026032742F4803286
:10201000C3F8D420D3F8D42002F480320192019A7C
:10202000D3F8E02042F00402C3F8E020D3F8E02027
:1020300002F004020292029AD3F8E02042F0080271
:10204000C3F8E020D3F8E030089403F00803CDE9AA
:102050000401039304A91148039BCDE9066702F02C
:10206000B3F90223042204A90D480894CDE90423FE
:10207000CDE9066702F0A8F900223120114601F0EF
:10208000A9F8312001F0E4F838B0D0BDFFF788FF9F
:10209000B3E700BF00700052004402580008025825
:1020A000000C02581448002314494FF4800210B564
:1020B00080E80E004FF0005207244FF08041C362C9
:1020C000C0E905322022C0E90343C0E90733C0E973
:1020D0000933C0E90D13C0E90F23C0E91133C0E98A
:1020E0001333C0E9153306F077FB00B910BDBDE826
:1020F0001040FFF755BF00BFE40600240050014028
:10210000504B02682DE9F0439A428DB04FF0000425
:10211000CDE906440894CDE9094402D00DB0BDE8EC
:10212000F083494B052603270546D3F8F0204FF0EE
:10213000020846484FF4806942F48012C3F8F02048
:10214000D3F8F02002F480120192019AD3F8E02033
:1021500042F48062C3F8E020D3F8E02002F4806209
:102160000292029AD3F8E02042F02002C3F8E02065
:10217000D3F8E02002F020020392039AD3F8E02083
:1021800042F40072C3F8E020D3F8E02002F40072B9
:102190000492049AD3F8E02042F08002C3F8E020D1
:1021A0000122D3F8E03003F0800305930223059960
:1021B00006A9CDE90623CDE9097602F005F94FF429
:1021C000807306A922480A96CDE90638CDE908476A
:1021D00002F0FAF806A91F48CDF81890CDE9097663
:1021E000CDE9078402F0F0F820231B4806A90A96DF
:1021F00006931A4ECDF81C800997089402F0E4F873
:10220000174B3046F46033605623C6F81090736065
:1022100040237461B360C6E90644C6E9084401F08E
:102220006DF960B900225520AE671146B56300F024
:10223000D1FF552001F00CF80DB0BDE8F083FFF799
:10224000AFFEEFE70050014000440258002802585A
:102250000014025800240258001C02586C06002486
:1022600010000240074B82B0D3F8F42042F0020283
:10227000C3F8F420D3F8F43003F002030193019B78
:1022800002B0704700440258FEE700BFFEE700BFFF
:10229000FEE700BFFEE700BFFEE700BF704700BFDC
:1022A000704700BF704700BF00F0F4BA014801F06A
:1022B0008DBC00BF6C060024014806F0ABBF00BF18
:1022C00070070024014806F08DB800BFF005002417
:1022D000014806F08FBC00BFE4060024014802F06C
:1022E00049BD00BFD01D00240120704708B537F05C
:1022F00035FB162203464FF0FF301A6008BD00BFC1
:1023000008B537F02BFB16230360FEE770B5161EE9
:1023100007DD0C468D19AFF3008004F8010BA542D0
:10232000F9D1304670BD00BF70B5161E07DD0C46F2
:102330008D1914F8010BAFF30080AC42F9D130468F
:1023400070BD00BF4FF0FF30704700BF4FF4005327
:1023500000204B60704700BF01207047002070478D
:1023600038B50D4C03460D490D4D2268491B2AB165
:1023700013448B4208D81046236038BD09480246F2
:10238000206013448B42F6D937F0E8FA0C234FF063
:10239000FF320360104638BD6C070024000008249B
:1023A00000200000187502242749284AD1F88830F7
:1023B00043F4700310B4C1F88830136803F00F03BE
:1023C000062B05D8136823F00F0343F007031360AF
:1023D0001F4B00241F4A19681C4841F00101196075
:1023E0001C6119680A401A6003681B0705D5036859
:1023F00023F00F0343F007030360154B0022164937
:10240000164C17489A61DA611A629C62D8621963A5
:102410005A639963DA6319645A641868114C20F49A
:102420008020114918601A6623681940B1F1005FD5
:1024300003D20E4B0122C3F808210D4B43F2D20206
:102440005DF8044B1A60704700ED00E00020005278
:10245000004402587FEDF6EA800201010002020208
:102460000000FF010010005C0000FFFF0080005131
:102470000040005210B5002388B019484FF0804446
:10248000EF2140F2E73204930193036183610793E4
:10249000C0E90041C0E90232CDE90533CDE902339C
:1024A00006F0D2FC88B94FF4805304A90C48049379
:1024B00006F0DCFD80B9002301A9094801930393CC
:1024C00006F060FF20B908B010BDFFF769FDEAE72C
:1024D000FFF766FD08B010BDFFF762FDEBE700BF38
:1024E0007007002400B5002389B019484FF6FF7229
:1024F000184904930193036183610793C0E90013B2
:10250000C0E90232CDE90533CDE9023306F09CFC87
:1025100090B94FF4805304A90D48049306F0A6FD2A
:1025200090B9002301A90A480193039306F02AFFFA
:1025300028B909B05DF804FBFFF732FDE9E7FFF7C2
:102540002FFD09B05DF804FBFFF72AFDE9E700BFA6
:10255000BC0700240004004000B5002389B01948DE
:102560004FF6FF7218490493019303618361079347
:10257000C0E90013C0E90232CDE90533CDE90233E9
:1025800006F062FC90B94FF4805304A90D480493FF
:1025900006F06CFD90B9002301A90A48019303934A
:1025A00006F0F0FE28B909B05DF804FBFFF7F8FC6F
:1025B000E9E7FFF7F5FC09B05DF804FBFFF7F0FC75
:1025C000E9E700BF08080024000800400368B3F1F1
:1025D000804F10B584B025D01E4A934204D01E4AC5
:1025E000934210D004B010BD1C4BD3F8E82042F049
:1025F0000202C3F8E820D3F8E83003F002030293A4
:10260000029B04B010BD154BD3F8E82042F0040241
:10261000C3F8E820D3F8E83003F004030393039BE6
:1026200004B010BD0D4B00221C20D3F8E840114629
:1026300044F00104C3F8E840D3F8E83003F00103A4
:102640000193019B00F0C6FD1C2004B0BDE81040C2
:1026500000F0FEBD000400400008004000440258A5
:1026600010B51F4800231F4C4FF4E1310C2283604A
:10267000C0E90041C0E90333C0E90523C0E90733DD
:10268000C0E9093307F048FA70B90021144807F08F
:10269000CDFA88B90021124807F00AFBA0B910480A
:1026A00007F0A6FAB8B910BDFFF77AFC00210C4874
:1026B00007F0BCFA0028EDD0FFF772FC00210848B3
:1026C00007F0F6FA0028EAD0FFF76AFC044807F0A2
:1026D0008FFA0028E7D0BDE81040FFF761BC00BFCB
:1026E000540800240010014010B5B6B00021044683
:1026F000BC2207A80691CDE90211CDE9041137F0FB
:10270000DAF8214B22689A4201D036B010BD01237D
:1027100007A8079303F014FF40BB1C4B072402A932
:102720001B48D3F8F02042F01002C3F8F020D3F891
:10273000F02002F010020092009AD3F8E02042F05C
:102740000202C3F8E020D3F8E030069403F002035D
:102750009FED097B0193019B8DED027B9FED087B33
:102760008DED047B01F030FE36B010BDFFF718FC94
:10277000D3E700BFAFF30080C000000002000000FC
:10278000000000000000000000100140004402585A
:1027900000040258DFF834D0FFF706FE0C480D495C
:1027A0000D4A002302E0D458C4500433C4188C42AC
:1027B000F9D30A4A0A4C002301E013600432A24212
:1027C000FBD337F0D1F8FFF7FFFA70470000082479
:1027D0000000002414040024E4491608180400240E
:1027E00018750224FEE700000F4B1B780BB901207F
:1027F000704710B504464FF47A700C4AB0FBF3F3FF
:102800001068B0FBF3F000F031FD0F2C00D808B1D8
:10281000012010BD002221464FF0FF3000F0DAFC0D
:10282000034B00201C6010BD0C0000240400002499
:102830001000002410B50320124C00F0B9FC03F086
:10284000F3FA114B11499A699B69C2F3032203F011
:102850000F038A5CCB5C02F01F020D4903F01F03DB
:10286000D04020FA03F308600F202360FFF7BCFF7D
:1028700010B10124204610BD0446FFF7F3FC2046AA
:1028800010BD00BF0800002400440258F4CF030824
:1028900004000024034A044B11681B780B441360A6
:1028A000704700BFE40800240C000024014B1868A6
:1028B000704700BFE408002438B50446FFF7F6FF70
:1028C0000546631C02D0044B1B781C44FFF7EEFF47
:1028D000431BA342FAD338BD0C000024014B1868F7
:1028E000000C70470010005C034A536823EA0000A4
:1028F00001435160704700BF00040058F0B500224A
:1029000083B0019290F85020012A00F036810346EE
:1029100001201A6883F850009468660700F19A80D5
:102920000C68C4F31305002D40F09D80C4F384644B
:10293000A040D6694FF01F0E4D6830434FEA951CFA
:10294000D06105F01F000CF00C0502F1300C844042
:102950000EFA00FE5CF8050020EA0E0020434CF859
:102960000500906810F0040F906859D1050757D4FE
:102970000C6802F114064FF0070C8F68E50DC4F3E4
:10298000045405F004050CFA04FC07FA04F4705929
:1029900020EA0C0020437051BD48006800F07040F0
:1029A000B0F1805FD06800F0E28010F0100F4D6948
:1029B000D06840F00281C0F38200400085400E697B
:1029C000042E00F0DD8002F16004086854F82670DF
:1029D00000F0F84007F0004C40EA0C00284344F8AF
:1029E00026004D7E0E69A5F1010554F82600B5FAC2
:1029F00085F520F000406D0940EAC57044F82600D6
:102A0000087E0D69A0F10100146905F01F05B0FAF8
:102A100080F024F4F0444009C002A8402043106133
:102A20009068C40714D4CE680C6806F0180799485B
:102A3000D2F8C050F840C4F31307204025EA070538
:102A40002843C2F8C0009448864243D0002C13DBD0
:102A5000002003E05A6D42F020025A65002283F8FC
:102A6000502003B0F0BD94FAA4F515B1B5FA85F580
:102A7000A840C4F384645CE788498A4200F0C180BE
:102A800001F580718A4200F0BC80854D8548A968B7
:102A9000806801F0E076C04300F00100002800F0FB
:102AA000BF808148844200F007818048844200F062
:102AB00026817F488442CBD14902C9D479498A42D0
:102AC000C6D1AA68002022F0E072324342F48002AC
:102AD000AA60C3E7002F75D094FAA4F0002800F094
:102AE000B380B0FA80F0013000F01F00092840F2F6
:102AF000AB8094FAA4F5002D00F01581B5FA85F5A8
:102B00000135AD0605F0F84594FAA4F0002800F070
:102B10000881B0FA80F00126013000F01F0006FAAB
:102B200000F0054394FAA4F4002C00F0F880B4FA05
:102B300084F403206FF01D06013404F01F0410FB21
:102B40000460000540F00070284302F114060727D6
:102B5000C50DC0F3045005F004058740745924EAFC
:102B600007048F6887403C4374510C686EE7C0F3DC
:102B700082004D694000854021E7022003B0F0BD8E
:102B8000106E0C6800F0F840A506B0EB846F2ED0F4
:102B9000506E00F0F840854224D0906E00F0F8406E
:102BA000854229D0D06E00F0F84085427FF438AFDE
:102BB000D06E20F00040D06632E7400800F00800F8
:102BC0008540FCE6A00E013000F01F04092C2DD832
:102BD0008506012005F0F845A040054304EB4400BC
:102BE0000005B1E7506E20F000405066D5E7106E4A
:102BF00020F000401066CBE7906E20F00040906619
:102C0000D0E726482B4D00F58070A96850F8F86C85
:102C10008068304301F0E076C04300F001003DE7FA
:102C20005A6D012042F020025A6517E785060126F9
:102C300004EB440005F0F84506FA04F41E38254379
:102C4000000540F000707FE794FAA4F5002D72D0E3
:102C5000B5FA85F50135AD0605F0F84594FAA4F00E
:102C6000002866D0B0FA80F00126013000F01F0085
:102C700006FA00F0054394FAA4F4002C56D0B4FAF6
:102C800084F0013000F01F0000EB400000055BE71E
:102C90000010005CFFFF0F000000FF470020024013
:102CA0000063025800600258000084CB000052C745
:102CB0000000B8CF0023024008023FF5C9AE1F490B
:102CC0008A427FF4C5AE1E4A1E481268A96892095E
:102CD00021F0E071A0FB02023143920941F40001AE
:102CE0000132A96052000192019A002A3FF4B0AE6D
:102CF000019A013A0192019A002AF9D1A8E611F04D
:102D000080707FF4A5AE0D498A427FF4A1AEAA6817
:102D100022F0E072324342F08072AA609EE60A48D6
:102D200012E70220FDE64FF08065EDE64FF440101B
:102D30000AE702209EE74FF080658FE700600258A7
:102D400004000024632D3E05000050FE38B5564AAD
:102D500004460368934225D002F58072934221D045
:102D6000524B9B6813F4403F21D003F025FA63686F
:102D70000546B3F5003F00F08680B3F5403F6AD0CA
:102D8000B3F5803F7FD0FFF7A9FD41F203039842DE
:102D90004AD8474B9D4229D92268936843F48073EF
:102DA000936038BD434B9B6813F4403FDDD14FF433
:102DB000002004F027FB63680546B3F5101F6CD0B4
:102DC00008D8B3F5E01F50D016D9B3F5001FDAD1FB
:102DD0004509D8E7B3F5201F45D0B3F5301FD2D150
:102DE000FFF77CFD41F20303984240D822689368C4
:102DF00023F48073936038BDB3F5801F06D00AD9E1
:102E0000B3F5A01F02D0B3F5C01FBCD19B0C5B0073
:102E1000B5FBF3F5B7E7B3F5002FF7D023F40022A5
:102E2000B2F5802FF2D0AEE7234B9D4205D8226841
:102E3000936823F44073936038BD204B9D421AD9A8
:102E40001F4B22689D42936829D823F4407343F4B2
:102E50000073936038BD8508FFF740FD41F203031E
:102E60009842E1D895E7C5098DE705098BE7124B34
:102E7000B3EB152FDBD22268936823F4407343F43D
:102E80008073936038BD1B0CB5FBF3F5FFF726FD8F
:102E900041F203039842C7D87BE7850973E743F4FF
:102EA0004073936038BD00BF0020024000630258A9
:102EB000002D31010023024021BCBE0041787D017C
:102EC00081F0FA0270B5002382B00193002800F06F
:102ED000D180456D0446002D00F0BB8022689368C8
:102EE0009D0003D59168724B0B4093609368D800A6
:102EF00016D4704B70491B6890689B09A1FB0313A3
:102F00006E499B090140013341F08051916001936A
:102F1000019B2BB1019B013B0193019B002BF9D13C
:102F20009368D90024D4636D012543F010036365D1
:102F3000A36D2B43A365936813F0040F636D1DD13C
:102F4000DB061BD4636D23F4817343F002036365D6
:102F50009368DE0728D45A4B9A4217D003F5807342
:102F60009A4213D0574B9B68D9071DD4564A15E097
:102F70009368002513F0040F636DE1D0636D0125A4
:102F800043F010032846636502B070BD4C4A4F4BB6
:102F900092689B681343D80706D44D4A93686168CA
:102FA00023F47C130B439360FFF798FC41F2030377
:102FB000A1689842237F52D894F815C01A04206B58
:102FC00042EA4C3202430A43012B03D1236A013BFC
:102FD00042EA4342636A23B103F47873A16A0B4364
:102FE0001A4323683B49D86801401143D9609A6865
:102FF00012F0040F9A681CD112071AD4D868364A06
:10300000217D024042EA8132E16A0A43DA6094F8A3
:103010003820012A3AD01A6922F001021A611A698D
:103020002046616B22F070420A431A61FFF78EFE60
:103030002368E268012A21D01A6B22F00F021A637A
:10304000636D284623F0030343F00103636502B078
:1030500070BDFEF73DFAA56584F850503EE7102993
:10306000AAD1617D1A0442EA4132216B0A4342F03F
:103070001C02A9E70125284602B070BD196BA269A0
:1030800021F00F01013A0A431A63D9E7D4E90F127C
:10309000666C01391869324342EA0142A16C0A4365
:1030A0000E4901400A4342F001021A61B7E700BF2E
:1030B000C0FFFF5F04000024632D3E05C0FFFF6FCB
:1030C00000200240006002580063025800210240C4
:1030D0000023024003C0F0FFFCBFFFFF1EF800FC0E
:1030E000F0B490F850209AB00E68012A4DD00346F3
:1030F0002B4C002201201D681692A54283F8500037
:10310000179208D0596D83F8502041F0200159657D
:103110001AB0F0BC7047234CA26852070BD5AA68BE
:103120005A6D012042F020025A65002283F8502097
:103130001AB0F0BC7047A86810F00400F0D1C6B116
:10314000DFF868C04F68DCF8082022F440423A43B8
:10315000CCF80820AD68A2682A43D40713D48A6843
:10316000DCF808401049324321400A43CCF80820DB
:10317000DBE70E498A6822F440428A60A868A268A8
:103180000243D00705D50020CFE702201AB0F0BCDB
:1031900070478C683046044A22408A60C5E700BF09
:1031A0000020024000210240E0F0FFFF0023024027
:1031B00006494FF6FF0C0002054BCA6800F4E060B8
:1031C00002EA0C0210430343CB60704700ED00E0BD
:1031D0000000FA051B4BDB68C3F3022300B5C3F103
:1031E000070E03F1040CBEF1040F28BF4FF0040ECC
:1031F000BCF1060F1AD9033B4FF0FF3C0CFA03FC5D
:1032000022EA0C024FF0FF3C00280CFA0EFC21EAE7
:103210000C0101FA03F141EA02010ADB09010A4B40
:10322000C9B2034483F800135DF804FB002213467F
:10323000E8E700F00F000901044BC9B20344197616
:103240005DF804FB00ED00E000E100E0FCEC00E0D4
:10325000002807DB012300F01F01034A40098B40CF
:1032600042F82030704700BF00E100E0431EB3F198
:10327000807F0CD24FF0E022002006494FF0F00C86
:103280005361072381F823C09061136170470120C7
:10329000704700BF00ED00E0BFF35F8F044B0021DB
:1032A0005A6A22F480325A62C3F89410704700BF01
:1032B00000ED00E0064B40F00100C3F894005A6AAC
:1032C00042F480325A62BFF34F8FBFF36F8F704763
:1032D00000ED00E0174A4378C2F89830017821B336
:1032E000436800B5C2F89C30C37A90F80CC01B0646
:1032F00090F80FE043EA0C7390F80AC00B43817B0F
:1033000043EACC4390F80DC043EA8C4390F809C0DF
:1033100043EA4143017A43EA0E4343EA0C2343EA7A
:103320004103C2F8A0305DF804FBC2F89C10C2F85B
:10333000A010704700ED00E002680146324B3348B0
:1033400070B4334E334DB24218BF9A42324C0CBF68
:1033500001230023AA4208BF43F00103A24208BF91
:1033600043F001033034824208BF43F001033030A0
:10337000A24208BF43F001033034824208BF43F049
:10338000010300F55C70A24208BF43F0010304F59D
:103390005C74824208BF43F001033030A24208BF90
:1033A00043F001033034824208BF43F00103303060
:1033B000A24208BF43F001033034824208BF43F009
:1033C00001033030A24208BF43F00103824208BF2C
:1033D00043F0010313B9114B9A4212D1D3B21048F2
:1033E000104C103BA0FB03505F2B4FEA1010205CE9
:1033F000C8650D4800EA020088BF0430886570BCCB
:10340000704722F0FF00F9E7100002407000024010
:10341000280002404000024058000240B804024028
:10342000ABAAAAAA04D0030800FCFFFF0368274A3E
:10343000274930B4274D284CAB4218BF93420CBFEC
:10344000012200228B4208BF42F001022831A34230
:1034500008BF42F0010228348B4208BF42F001024B
:103460002831A34208BF42F001028B4208BF42F05C
:10347000010212B9194A934213D1DBB21849194A11
:10348000083B194CA1FB0313012102EB1312C3F3F8
:103490000413920001FA03F38366C0E9182430BCD8
:1034A0007047D9B2114A124C10391A44A4FB014199
:1034B000A82A4FEA111100D808310E4A01F01F0462
:1034C00001230A44A3400C4C9200E5E7085402583B
:1034D000305402581C540258445402589454025810
:1034E000CDCCCCCC0096001680580258F0FBFDBF26
:1034F000ABAAAAAA00820010800802402DE9F04F72
:10350000054683B0FFF7D2F9002D00F099812C68B1
:103510000646A04B9C4248D018339C4245D03033DD
:103520009D4A944218BF9C4202F130020CBF012315
:103530000023944208BF43F001031832944208BFAD
:1035400043F001031832944208BF43F001031832DC
:10355000944208BF43F0010302F55672944208BF3B
:1035600043F001031832944208BF43F001031832BC
:10357000944208BF43F001031832944208BF43F05D
:1035800001031832944208BF43F0010318329442F9
:1035900008BF43F001031832944208BF43F001030F
:1035A0001BB97E4B9C4240F0A481022385F8353044
:1035B000002385F83430236823F00103236006E0FC
:1035C000FFF774F9801B052800F220812C6823681E
:1035D000DF07F5D4D5E9023029690343AA692068D9
:1035E0000B4369690B43E96913430B436C49014081
:1035F000286A03436B480B43696A042900F024815D
:10360000066869483040B0F1005F80F0DD802360DB
:10361000636923F007030B4363612846FFF78CFEC1
:10362000EA6D3F235B4902F01F02604E604F9340FA
:10363000604AA61BE71B8360A4EB020B5E4BB6FA45
:1036400086F6BBFA8BFBB7FA87F7A4EB030A5B4B52
:103650004FEA5B1B5A489C4218BF8C4203F1180387
:10366000BAFA8AFA4FEA56160CBF012100214FEA36
:103670005A1A221A9C4208BF41F0010118337F09EF
:10368000B2FA82F29C4208BF41F00101183352099C
:103690009C4208BF41F00101183301929C4208BFCF
:1036A00041F0010118339C4208BF41F00101183379
:1036B0009C4208BF41F0010103F556739C4208BFCC
:1036C00041F0010118339C4208BF41F00101183359
:1036D0009C4208BF41F0010118339C4208BF41F0F1
:1036E000010118339C4208BF41F0010118339C428C
:1036F00008BF41F0010118339C4208BF41F00101AD
:1037000018339C4208BF41F001012E4B4BEA0101E6
:10371000A4EB030814334AEA0101B8FA88F8A4EBD1
:103720000309143331434FEA5818B9FA89F9E31AF7
:1037300039434FEA5919B3FA83F348EA01015B09A7
:1037400049EA0101194300D1DAB128460093FFF795
:103750006DFEA968009B802966D068682A6EC4B295
:103760000138D5E919C107281460CCF8041062D8D3
:10377000611E072979D96A6FD5E91B3000211960CC
:10378000426000200123686585F8353003B0BDE84C
:10379000F08F00BF1000024040000240B804024019
:1037A0003F8010FE0010005C0000FFFF3054025804
:1037B00044540258085402581C540258280002402D
:1037C00094540258585402586868A0F129061F2ED4
:1037D00025D94F38032801D843F4801323600429E6
:1037E000636923F0070343EA01037FF415AFE86A36
:1037F000A96A0B4300283FF40FAF002A53D10129D7
:1038000072D031F002027FF407AF54E0202203238C
:1038100001206A6585F8353003B0BDE8F08F78483F
:10382000F040C007DAD5D7E70023A96ED5E9180222
:103830006B60036051600023C5E91B336B67A0E731
:10384000012003B0BDE8F08F0768D5E90B060643F9
:1038500033436C4E3E40B6F1005FB5D223606369DE
:1038600023F0070343F00403C2E7019A1A4349EA2D
:10387000020948EA090847EA08073E435AEA0606E9
:1038800007D1BBF1000F04D15F4B604823449B007C
:1038900003E05F4B5F4823449B0001228A40C5E957
:1038A0001B306A676AE7B2F5005F0ED0022905D9BE
:1038B00003297FF4B1AEC2017FF5AEAE01234022F1
:1038C00018466A6585F83530A6E703293FF6A4AEA9
:1038D00001A252F821F000BFBD380008B738000837
:1038E000BD380008E9380008B0F1C07F7FF494AE1D
:1038F000E4E7494A494BA4EB020B494EA4EB030A07
:10390000484FBBFA8BFBA61BBAFA8AFA3C334FEA44
:103910005B1BB6FA86F64FEA5A1AE71BA4EB0308BC
:1039200076091433B7FA87F74BEA0A01B8FA88F830
:10393000A4EB03097F09314314334FEA5818B9FA4D
:1039400089F93943E31A38484FEA591948EA01011D
:10395000B3FA83F3221A49EA01015B09B2FA82F24F
:1039600019434FEA5212019201D1002A41D002219B
:10397000DFF8C0C085F83510002185F834102168C3
:1039800001EA0C0CA968402930D0A1F18001B1FAFC
:1039900081F149094FEA813E2969E868C908234A4B
:1039A000009341EAD0006969224440EAD100A96944
:1039B00040EAD100E96940EAD100296A40EA1111E0
:1039C00041EA0C014EEA010121601949A1FB020103
:1039D000284609098900E965FFF7AEFCE96D009BFF
:1039E00001F01F040121A1404160AEE64FF0100E2E
:1039F000D2E74022032301206A6585F835300BE7C2
:103A00003F00C0C30000FFFF3F820010400902409A
:103A10003F96001640590258085402581C54025848
:103A2000305402584454025894540258F8ABFDA73D
:103A3000CDCCCCCC0F00FEFF00285FD038B590F87D
:103A400035200346022A55D10168574A914248D091
:103A50001832914245D03032544C5548A14218BFDB
:103A6000914204F148040CBF01220022814208BFA8
:103A700042F001023030A14208BF42F0010230346E
:103A8000814208BF42F0010200F55C70A14208BF0C
:103A900042F0010204F55C74814208BF42F0010269
:103AA0003030A14208BF42F001023034814208BFE9
:103AB00042F001023030A14208BF42F0010230342E
:103AC000814208BF42F001023030A14208BF42F0FB
:103AD0000102814208BF42F0010212B9354A914207
:103AE0000ED10422002083F835200B6823F0010357
:103AF0000B6038BD802201205A6538BD0120704717
:103B00002D4A2E4D0868A94218BF91422C4C20F036
:103B10000E0005F13C050CBF012200220860A14205
:103B200008BF42F0010208682834A94208BF42F0E9
:103B3000010220F00100A14208BF42F0010214344A
:103B40000860A14208BF42F001021E48814208BF3E
:103B500042F0010212B91C4A914217D101229D6D17
:103B6000D3E91704216800F01F0021F4807182401E
:103B700021606A60DA6ED3E91910486032B11168C9
:103B8000D3E91C0421F480711160446001210024F8
:103B90001A6D83F8351083F834401AB118469047EF
:103BA000204638BD104638BD10000240400002409B
:103BB00070000240B80402401C54025808540258D5
:103BC0003054025880540258945402582DE9F04160
:103BD00000229E4B82B0846D06461D6801920368E8
:103BE0009B4A9C482768934218BF834221680CBFB8
:103BF000012000204FD01832DFF860C2634518BFA3
:103C000093420CF1180C0CBF01220022634508BF3F
:103C100042F001020CF1180C634508BF42F00102AA
:103C20000CF1180C634508BF42F001020CF1180CAE
:103C3000634508BF42F001020CF5567C634508BF9E
:103C400042F001020CF1180C634508BF42F001027A
:103C50000CF1180C634508BF42F001020CF1180C7E
:103C6000634508BF42F001020CF1180C634508BF20
:103C700042F001020CF1180C634508BF42F001024A
:103C80000CF1180C634508BF42F001021AB9724AE0
:103C9000934240F04B82F16D082201F01F0C02FAB2
:103CA0000CF2174240F07D8127FA0CF2D2070AD5B8
:103CB0005A69120607D5012202FA0CF2A260726D4F
:103CC00042F0020272654FF0040E0EFA0CFE1EEA7C
:103CD000070F5AD000284FD1604ADFF8848143454E
:103CE00018BF934208F130080CBF0122002243455F
:103CF00008BF42F0010208F11808434508BF42F02E
:103D0000010208F11808434508BF42F0010208F11A
:103D10001808434508BF42F0010208F556784345AC
:103D200008BF42F0010208F11808434508BF42F0FD
:103D3000010208F11808434508BF42F0010208F1EA
:103D40001808434508BF42F0010208F1180843452E
:103D500008BF42F0010208F11808434508BF42F0CD
:103D6000010208F11808434508BF42F001021AB9E0
:103D7000394A934240F014821A68920705D5C4F874
:103D800008E0726D42F004027265102202FA0CFC27
:103D90001CEA070F69D0002845D1304A30488342D9
:103DA00018BF934200F130000CBF01220022834271
:103DB00008BF42F001021830834208BF42F00102FE
:103DC0001830834208BF42F001021830834208BF16
:103DD00042F0010200F55670834208BF42F0010232
:103DE0001830834208BF42F001021830834208BFF6
:103DF00042F001021830834208BF42F0010218303D
:103E0000834208BF42F001021830834208BF42F0EB
:103E100001021830834208BF42F001021AB90E4A6B
:103E2000934240F0C5811A6812071ED5C4F808C035
:103E30001A68520300F14E811A68D20503D41A6839
:103E400022F008021A60336C7BB10BE004000024FE
:103E50002800024010000240B8040240580002400E
:103E60004000024030469847F16D01F01F012020CC
:103E70008840384266D03268A44BA54FBA4218BF7A
:103E80009A4207F118070CBF01230023BA4208BF6A
:103E900043F001031837BA4208BF43F00103183753
:103EA000BA4208BF43F001031837BA4208BF43F0D3
:103EB00001031837BA4208BF43F001031837BA426A
:103EC00008BF43F0010307F55677BA4208BF43F035
:103ED00001031837BA4208BF43F001031837BA424A
:103EE00008BF43F001031837BA4208BF43F001038B
:103EF0001837BA4208BF43F001031837BA4208BF67
:103F000043F001031837BA4208BF43F001031BB95D
:103F1000804B9A4240F061811368DF0612D5A060A1
:103F200096F83530042B136800F0B68013F4802F18
:103F3000136800F0D8801F0340F1E380F36B0BB1EE
:103F400030469847736D002B00F0C180736DDC071D
:103F50001ED53268042186F835106F491368A1FB1D
:103F6000055123F00103890A136002E01368D807A2
:103F700004D5019B01338B420193F7D91368DB070A
:103F80004CBF0323012386F83530002386F83430F4
:103F9000F36C002B00F09B80304602B0BDE8F0418E
:103FA0001847D3F800E01EF0040F0AD0D3F800E061
:103FB0002EF0040EC3F800E0A260726D42F0010220
:103FC000726527FA0CF2D2077FF57DAE534ADFF80F
:103FD00050E1734518BF93420EF1300E0CBF012221
:103FE0000022734508BF42F001020EF1180E73451E
:103FF00008BF42F001020EF1180E734508BF42F0EF
:1040000001020EF1180E734508BF42F001020EF5D1
:10401000567E734508BF42F001020EF1180E73453B
:1040200008BF42F001020EF1180E734508BF42F0BE
:1040300001020EF1180E734508BF42F001020EF1A5
:10404000180E734508BF42F001020EF1180E7345B9
:1040500008BF42F001020EF1180E734508BF42F08E
:1040600001020EF1180E734508BF42F00102002A4A
:104070007FF41EAE00287FF41BAE1A68042202FAF9
:104080000CF23A4240F08C80102202FA0CFC17EA43
:104090000C0F3FF4EAAE80E623F016031360536979
:1040A00023F080035361336C002B3BD0136823F063
:1040B000080313603F23012000228B40A360336D6F
:1040C00086F8350086F83420002B7FF465AF02B007
:1040D000BDE8F0811B6818037FF5B5AEB36C002B0B
:1040E0007FF4C0AEC1E613F480737FF427AF11688C
:1040F00021F010011160012286F8343086F8352055
:104100001CE7736C002B7FF41BAF1BE71000024011
:1041100028000240B8040240B5814E1B58000240FE
:1041200040000240B36C002BC0D1C3E74B4A4C485F
:10413000834218BF934200F114000CBF01220022F9
:10414000834208BF42F001021430834208BF42F0AC
:1041500001021430834208BF42F00102143083424E
:1041600008BF42F001021430834208BF42F001024E
:1041700012B93C4A9342AAD1F06D04251A6800F0A6
:104180001F0085400D4218D0570716D510046560F2
:1041900047D5D1034BD4B36C002B7FF4FDAE96E72B
:1041A0001A68102202FA0CFC17EA0C0F3FF45DAEFD
:1041B0001A6850077FF559AE38E6022585400D4252
:1041C00010D097070ED56560140435D5D0033FD4C1
:1041D000736C002B7FF4E0AE79E713689B077FF5E3
:1041E000B1AE9CE6082585400D423FF470AF110743
:1041F0007FF56DAF1A68002122F00E021A600123CC
:10420000F26C03FA00F06060736586F8341086F88B
:104210003530002A3FF45BAF304602B0BDE8F041D4
:104220001047920603D41A6822F004021A60336C15
:10423000002B7FF4B1AE4AE712F0200208D11968D2
:10424000012021F00A01196086F8350086F8342033
:10425000F36B002B7FF4A0AE39E700BF085402587F
:104260001C54025894540258002835D038B590F8A0
:104270006130044603F0FF024BB3236802206268FA
:1042800084F86100E1691D6814481143A268284060
:10429000E5680143A06919600243596B1048084062
:1042A000104902435A631A6C1140D4E904022943AD
:1042B00052051964596B42EA0052002021F4401162
:1042C0000A435A630123606684F8613038BD80F880
:1042D0006020FDF76DF9D0E701207047BFFFF8FFC0
:1042E000F8FEFFFF0000FFFF90F86020012A65D074
:1042F0000346C1EBC100022203EB800070B401242D
:1043000083F8612083F86040826BC46A056B1205F4
:10431000A4F1090C42EA0542C56BBCF1010F42EA67
:10432000040242EA455222D9456B42EA056281B94C
:1043300018682349456A9C6A294011434162846197
:1043400000220121104683F8611083F8602070BCC0
:1043500070470B2C1C6829D1E5691A492940056C66
:10436000806A41EA85411143E1612061E8E7446BDD
:1043700004F07F44144361B91968114A4E6A586BBE
:1043800032409D6A20F07F4022434A628D618862FC
:10439000D6E719680A4ACD692A40856A2243446BE8
:1043A00024F07F44CA610D610C62C9E7E5690449E4
:1043B000806A29401143E1612061C1E70220704712
:1043C000F0FFCC00F0FFC0002DE9F04F0C6883B087
:1043D000002C00F0A7804FF0000C8A4F63460122AA
:1043E0009A4012EA040E00F096804D6805F0030929
:1043F00009F1FF36012E40F29880B9F1030F40F029
:10440000D28009FA0CF26FEA0208066815F4403F00
:1044100006EA080642EA060202607CD0D7F8F420D9
:1044200023F0030803F003090F2642F0020208F10B
:10443000B0484FEA8909C7F8F42008F58068D7F832
:10444000F42006FA09F602F002020192019AD8F865
:10445000082022EA06026C4EB04228D006F580669B
:10446000B04200F0AC80694EB04200F0AD80684EC2
:10447000B04200F09F80674EB04200F0AF80664EC1
:10448000B04200F0B080654EB04200F0A280644EB1
:10449000B04200F0AD80634EB04200F0AE80624E9C
:1044A000B0420CBF09260A2606FA09F63243C8F8BC
:1044B00008204FF0B04215F4801F6FEA0E06126814
:1044C0004FF0B0480CBF32404EEA020215F4001F14
:1044D000C8F80020D8F804204FF0B0480CBF324094
:1044E0004EEA020215F4003FC8F80420D8F88420F0
:1044F0004FF0B0480CBF32404EEA0202ED034FF0DD
:10450000B045C8F88420D8F8802054BF32404EEA25
:104510000202C5F8802001330CF1020C34FA03F2D8
:104520007FF45DAF03B0BDE8F08F4FF003088668FD
:1045300008FA0CF826EA080ACE686FEA080806FAB4
:104540000CF646EA0A068660C5F30016D0F804A009
:104550009E402AEA020232434260C268B9F1020F69
:104560008E6802EA080206FA0CF646EA020609FA22
:104570000CF2C6607FF449AF4FEAD30903F0070B92
:104580000F2600EB89094FEA8B0BD9F820A006FA19
:104590000BF62AEA060A0E6906FA0BF646EA0A063E
:1045A000C9F8206031E74FF0030808FA0CF86FEA09
:1045B0000808D2E7032606FA09F6324377E7012610
:1045C00006FA09F6324372E7022606FA09F6324382
:1045D0006DE7062606FA09F6324368E7042606FA6E
:1045E00009F6324363E7052606FA09F632435EE729
:1045F000072606FA09F6324359E7082606FA09F6AD
:10460000324354E7004402580000025800080258A0
:10461000000C0258001002580014025800180258EA
:10462000001C025800200258002402580369194255
:1046300014BF01200020704702B90904816170474E
:104640002DE9F0470D4614469A4606788146012723
:104650004FF0000806E019F8016F06EB0803B3F508
:10466000807F37D805EB08003246394616B1B04492
:1046700035F021F9102F07F10107ECD1002305F8DF
:104680000830CAF800802878014600B36FF040482F
:1046900001271A4688420FD102EB0800561C05EB91
:1046A000020C04EB8000F61A40F8043FF2181CF8E4
:1046B00001EF01338E45F7D01F290BD807FA01F01F
:1046C000984207D9A85C5B0001310028E2D10020A4
:1046D000BDE8F0870120BDE8F08700BFF0B5ADF27E
:1046E000145D0D46044601AB43AA02A9FFF7A8FFDB
:1046F000D0B9019FC7B10F370DF5867E02A904F12D
:104700000F0C274409E011F8012BBC455EF8046B3F
:1047100002F1FF32E660EA5406D01CF8013F0B2B91
:1047200005EB8304EFD901200DF2145DF0BD00BF4D
:104730002DE9F04F046893B0084604F5F8639A42F7
:1047400000F09D8004F5FC639A4203D0012013B071
:10475000BDE8F08F04F5FF6403A9FFF7BFFF002851
:10476000F5D16FF0F0239DF817A09DF816E02360B7
:104770004FEA0A2A63604FEA0E2E9DF80E300AF4C3
:10478000706A9DF844200EF4706E1B029DF815901F
:104790004AEA020A9DF814C003F470634FEA09293B
:1047A0004FEA0C2C9DF81380019309F470699DF871
:1047B00040300CF4706C9DF812104FEA08284EEA55
:1047C000030E9DF8117008F4706809024EEA0A4E53
:1047D0009DF8102001F470613F0244F804EC1202CD
:1047E0009DF83CE007F4706702F470629DF80F607A
:1047F00049EA0E099DF838E03602019B4CEA0E0C9E
:104800009DF80D5006F470669DF80CB04CEA094C0A
:104810002D0244F808CC4FEA0B2B9DF834C005F468
:1048200070650BF4706B48EA0C089DF830C041EAE3
:104830000C0141EA084144F80C1C9DF82C100F4370
:104840009DF828100A4342EA074244F8102C9DF8CC
:10485000242016439DF82020134343EA064344F8DE
:10486000143C9DF81C301D439DF818304BEA03039F
:1048700043EA054344F8183C13B0BDE8F08F04F553
:10488000FB6469E72DE9F0430468ADF63C0D0D4685
:1048900004F5A0639A4242D004F5CC639A4204D056
:1048A00001200DF63C0DBDE8F08304F2A474284607
:1048B0006B460DF2344201A9FFF7C2FE0028F0D189
:1048C000009B7BB30F330DF234470DF1040C05F15F
:1048D0000F0205EB030E42AE11E003EB4503A12BE3
:1048E000DED81CF8015B06EB830857F8049B96455D
:1048F00005F1FF353146C8F8A490F55413D012F8ED
:10490000011FA0230029ECD00D0901F00F03F029AD
:1049100005EB850503F1FF33DFD1A123E1E704F2C5
:104920004464C4E742A96FF0F0231A4AA1EB810C5A
:104930000DF16605236063600CF54A7EA36003F108
:10494000D333E2600CF5497C03F12C23236103F19E
:104950000213636103F10213A36191F8A12091F89E
:10496000A03012021EF821701B021CF8216002F414
:104970007062023903F470633A438D4243EA0603DE
:1049800043EA024344F8043DE7D10DF63C0DBDE88F
:10499000F08300BFD00FD10F002800F00B8170B55D
:1049A00090F84D30044603F0FF02002B00F0FD802C
:1049B000226802210023804884F84D10116B41F0D9
:1049C00001011163116821F001011160116B21F0E7
:1049D0007E011163116B41F400511163116B41F4BD
:1049E00080411163916B41F0600191637349E06311
:1049F0000120A364C4E91013C2F86C334FF00131F5
:104A00006F4BC2F86803C2F864136E48C2F8603393
:104A10006D4BC2F878036D49C2F874336C4BC2F821
:104A200070136C48C2F888336B496C4BC2F884032E
:104A3000C2F88013C2F87C334FF6F923D2F82C0465
:104A40006749014002F585600B436649A1F1A00664
:104A5000C2F82C3491F8AE30043991F8B3E01B045D
:104A600091F8B0C091F8B150B14243EA0E6343EA05
:104A70000C0343EA052340F80439EBD1D2F82C3477
:104A80004FF00131564801259BB243F04073C2F804
:104A90002C34D2F83C340340C2F83C34C2F83854C9
:104AA000C2F83414C2F8301440F60A31D2F83C345B
:104AB0009BB243F08073C2F83C34D2F848340340D0
:104AC0001943494BC2F8481447F20271C2F8443402
:104AD000A3F10433C2F84034D2F848349BB243F017
:104AE0000073C2F84834D2F8583403403F481943A1
:104AF0003F4BC2F858143F49C2F8540402F59F6076
:104B0000C2F85014C2F84C34D2F858343A499BB227
:104B1000A1F1A00643F08073C2F8583491F8B03088
:104B2000043991F8B5501B0491F8B2E091F8B3C084
:104B3000B14243EA056343EA0E0343EA0C2340F81B
:104B40000439EBD102F5A06226492046FFF79AFE10
:104B500018B101231846236570BD226820462649F6
:104B600002F5CC62FFF78EFE0028F2D122682046C3
:104B7000224902F5F862FFF7DBFD0028E9D122683F
:104B800020461F4902F5FC62FFF7D2FD0028E0D164
:104B900022680121536843F480735360206260628D
:104BA00084F84D102065606570BD80F84C20FCF7DE
:104BB000EFFEFDE601207047ECD1030874D1030835
:104BC0000001050108090A0B04050607000102039C
:104BD0000000017D05050404030204030002010333
:104BE0000000FFFFC0D00308060708090404000105
:104BF00001020404030407050CD00308D0D1030804
:104C0000B4D10308F0B58BB0002800F0888090F88C
:104C1000BD330546046803F0FF02002B79D020461F
:104C200003232E462F1D85F8BD33E36B6C4613F42A
:104C3000807308BF2B6106F097FC56F810EBB44662
:104C4000BCE80F000FC4BCE80F000FC49CE80300D1
:104C500084E80300704697E80E0006F065FB044602
:104C600030B101240223204685F8BD330BB0F0BDDE
:104C70000146286806F080FC686858B322464FF069
:104C8000010E2146C2EBC20302F1010C05EB8303C6
:104C900083F83C20A3F842205FFA8CF283F83DE0D1
:104CA000824283F83F101965C3E91111EAD300224B
:104CB000C4EBC403611C05EB830383F8FC41CCB255
:104CC00083F8FD21844283F8FF21C3F81022C3E951
:104CD0008122EDD36C460FCE0FC40FCE0FC496E8E1
:104CE000030084E8030097E80E00286806F07AFCC9
:104CF00004460028B5D101226B6A85F8380093423A
:104D000085F8BD230FD0286807F0F2F820460BB0D5
:104D1000F0BD80F8BC2308F023FA286880E701245E
:104D200020460BB0F0BD284600F0E0FCEBE700BFEA
:104D300010B590F8BC3304460068012B17D001224F
:104D4000A36A934284F8BC2309D006F005FC2068CE
:104D500007F0BEF80023184684F8BC3310BDA369E1
:104D60009342F2D0836B43F480338363EDE70220F8
:104D700010BD00BF2DE9F04F076889B004463846E2
:104D800007F0F4F810B109B0BDE8F08F8346206851
:104D900007F0BEF80028F6D0206807F0B9F810F048
:104DA000020F206803D0436903F00203436107F058
:104DB000AFF810F0100F206812D0836923F01003B1
:104DC00083613D6AC5F3434305F00F06022B00F0F3
:104DD0006682062B00F0B281836943F01003836181
:104DE00007F096F810F4002F206840F0D08007F00C
:104DF0008FF8430376D4206807F08AF800285DDB3B
:104E0000206807F085F800054DD4206807F080F889
:104E1000020114D52268536903F00063536194F8CA
:104E2000F433002B40F074810121204684F8F41300
:104E3000536DC3F38303C4F8F83300F06FFC2068AC
:104E400007F066F8C30400F11881206807F060F8E5
:104E500010F4005F206840F0F98007F059F8070768
:104E600000F1EB80206807F053F8C60200F1DB8008
:104E7000206807F04DF8850200F1CB80206807F02C
:104E800047F8400000F1BC80206807F041F8410776
:104E90007FF579AF23685D686A0700F121825A685F
:104EA0002A435A606FE7D7F80838D90700F114820F
:104EB0002068436903F400634361A7E7D7F8042837
:104EC00022F00102C7F8042894F8F433012B00F013
:104ED0002E81204608F0F6F92068436903F000436C
:104EE00043618EE7206807F01FF880462068B8F11C
:104EF000000F81D04FF0000A07F51069039726468E
:104F00005746CDF810B009E05FEA580807F10107ED
:104F100006F11C0609F1200900F0278118F0010FA5
:104F2000F2D05FFA87FA514607F010F8C30705463A
:104F300016D50399012307F00F0203FA02F2D1F804
:104F4000343823EA0203C1F8343801232169C9F84F
:104F50000830994200F0C9815146204608F076F9A0
:104F6000280702D50823C9F80830E90602D510231E
:104F7000C9F808306A0602D54023C9F80830AB07E3
:104F800000F185812D0600F12C812068BCE706F038
:104F9000C3FF0546002800F0E48007F53066A2460E
:104FA0004FF000082068039708E06D0808F1010839
:104FB00006F120060AF11C0A00F0D580EF07F4D5AF
:104FC0005FFA88F7394606F0B7FF8146206819F086
:104FD000010F40F0CD8019F0080F40F0E88019F083
:104FE000100F01D01023B36019F0200F01D020233F
:104FF000B36019F4005FD8D04FF40053B360D4E726
:10500000204608F06BF92068436903F08043436150
:105010003BE72046002108F059F92068436903F472
:10502000001343612BE72046002108F053F9206864
:10503000436903F4801343611BE7204608F010F92D
:105040002068436903F0080343610CE706F092FF10
:10505000206806F00DFC2568E06001F0ADF8227BC9
:105060000146284606F0FEF9204608F0FDF82068C3
:10507000436903F400534361EFE6D7F8043807F5BA
:1050800000651021206823F001036B6006F0C8FB67
:105090006068E0B107F510634FF67F3199600BF15E
:1050A000010B1A682033834522F4001243F8202CA8
:1050B000C3F8E811D3F8E02122F40012C3F8E0218C
:1050C000D3F8E02142F00062C3F8E021E6D1EB69B9
:1050D000226B43F00113EB61F2B96A6942F22B03D0
:1050E00013436B612B6943F00B032B61D7F8003836
:1050F00004F57172217C23F4FE632068C7F8003840
:1051000006F04EFF2068436903F4805343619DE637
:10511000204608F0BFF892E6D5F8843043F00B0340
:10512000C5F884306B6C43F00B036B64DEE7002141
:10513000204684F8F41300F0F1FACDE6C6EBC6067B
:10514000082204F57171384606F02CFEC5F30A13E7
:1051500004EB86022068D2F814120B44C2F8143211
:105160003AE6206843E6039F41E6DDE9037B43E638
:1051700001222169B26000F530620129D0F840C0F7
:1051800002EB4812936800F0C6808E498C4500F00F
:10519000DA80B8F1000F04D1D4F81022002A00F010
:1051A0000A812046394608F047F8206813E70823AB
:1051B000B36000F53063026C834803EB481382420E
:1051C000996840F2A3800A0402D54FF400429A6025
:1051D000204608F02BF82169012900F0C1802068E1
:1051E000FDE6D6E91453D4F800B0AB4258463FF67A
:1051F0008BAE0BF51062716CCDF81CB002EB471250
:105200000592EA1A8A4228BF0A460599896903323B
:1052100089B2B1EB920FC0F092804A460697C14620
:105220005F46D046DDF814B0924619E0736C4246F2
:10523000B16C38469D4228BF1D46237C0093ABB21B
:1052400006F09AFDB36CDBF818102B4489B2B364F6
:10525000736D2B440335B1EB950F736568D3356DD2
:10526000AB42A5EB0305E1D3C846069FD146D4F86F
:1052700000B0079B07F00F02584603F500610123B9
:1052800003FA02F24B6B23EA02034B633CE6394616
:10529000039806F0C5FA0223C9F8083072E647F60B
:1052A000F0731D423FF498ADC6EBC606C5F30A1273
:1052B000384604EB86061546D6F8081206F072FD4D
:1052C000D6F8083220682B44C6F80832D6F81432D3
:1052D0002B44C6F814327FE5204607F0DBFFE7E5F4
:1052E000204607F0FFFF2368D9E5D6E911231344D0
:1052F000B364002F7FF430AE236D002B7FF42CAE0F
:1053000004F57172206806F04BFE25E6204607F092
:105310008DFF206863E619071DD52B498C457FF664
:105320005AAE1F047FF557AE4FF40043936052E628
:10533000D4F800B0C846069FD146356D58469D4208
:105340003FF6E2AD95E71904EED499067FF529AF53
:105350002021916025E7990608D5202393603AE63D
:1053600004F57172206806F01BFE38E713F0280F71
:105370007FF431AE14498C4501D91B04D4D4126991
:10538000DAF80412C2F312028A1ACAF81422DAF8FE
:1053900008220A44CAF80822B8F1000F7FF401AFCE
:1053A000D4F81022002A7FF4FCAE04F571720121BA
:1053B00006F0F6FDF5E604F57172414606F0F0FDE3
:1053C000EFE600BF0A31544F0A30544F90F8BC2327
:1053D000012A0ED0012210B50446006884F8381066
:1053E00084F8BC2306F062FD0023184684F8BC3321
:1053F00010BD0220704700BF10B501F00F0E090666
:10540000044627D44FF01C0C0CFB0E0C0CF5FE715F
:10541000CEEBCE0C00EB8C0C00208CF8FD018A60EA
:105420004A7881F800E0CB700AB1A1F806E0022BBF
:1054300001D100230B7194F8BC33012B18D0012348
:10544000206884F8BC3306F01FFA0023184684F85D
:10545000BC3310BD1C204FF0010C00FB0E4000F1CE
:105460003C01CEEBCE0004EB800080F83DC0D6E7D7
:10547000022010BD11F0800F01F00F034FF01C014E
:1054800010B504461AD101FB0341C3EBC30200204F
:1054900001F5FE7104EB820282F8FD010B7094F8B5
:1054A000BC33012B19D00123206884F8BC3306F0EB
:1054B00033FA0023184684F8BC3310BD01FB0341C6
:1054C000C3EBC302012004EB82023C3182F83D00B1
:1054D0000B7094F8BC33012BE5D1022010BD00BF46
:1054E00010B501F00F041C21C4EBC40C01FB040136
:1054F00000EB8C0C01F5FE71CCF810320023CCF8D7
:1055000008228CF8FC41CCF814328CF8FD31036988
:105510000068012B08BFCCF80C22DAB21CB906F0E7
:1055200071FB002010BD06F055FA002010BD00BF31
:1055300001F00F01C1EBC10100EB8100D0F81402B2
:10554000704700BF10B501F00F041C21C4EBC40C60
:1055500001FB040100EB8C0C3C31CCF850300023F3
:10556000CCF84820CCF8543001238CF83C408CF81F
:105570003D3003690068012B08BFCCF84C20DAB23B
:105580001CB906F03FFB002010BD06F023FA0020F6
:1055900010BD00BF38B5436801F00F059D4234D8F7
:1055A0000B0604461DD41C22C1EBC10302FB010102
:1055B00000EB8303002201F5FE7183F8FD21012336
:1055C0000D708B7094F8BC239A421CD0206884F82C
:1055D000BC3306F00BFCD5B10023184684F8BC336D
:1055E00038BD1C21C5EBC503012201FB050100EB01
:1055F00083033C3183F83D2001230D708B7094F8B8
:10560000BC239A42E2D1022038BD012038BD04F506
:105610007172217C206806F0C3FCDDE7426838B572
:1056200001F00F03934232D811F0800F04464FF07F
:105630001C01C3EBC30219D101FB0341002004EBA1
:105640008202002501F5FE7182F8FD010B708D705C
:1056500094F8BC33012B18D00123206884F8BC33A4
:1056600006F0F8FB284684F8BC5338BD01FB034123
:10567000012004EB820200253C3182F83D000B70D2
:105680008D7094F8BC33012BE6D1022038BD012087
:1056900038BD00BF10B40468636A31B943EA0243FD
:1056A0000020A3625DF8044B7047A06A013903EB48
:1056B000104C0BD0002303F14000013304EB8000B9
:1056C000DBB240688B420CEB104CF4D340314CEA17
:1056D0000242002004EB810462605DF8044B7047D5
:1056E000034600201B685962704700BF03464FF015
:1056F000000C09491A68604610B4012483F8F4C309
:10570000C3F8FC4393695DF8044B43F00063936175
:10571000536D19435165704703000010704700BF77
:1057200038B5104CE36813F0040FE36805D103F0BB
:105730000703181A18BF012038BD23F007030343DD
:10574000E360FDF7B3F8054605E0FDF7AFF8401B51
:10575000B0F57A7F04D863689B04F6D5002038BD85
:10576000012038BD00480258024AD36843F08073D4
:10577000D3607047004802583B4B30B49A6A9C6A29
:10578000DD6A14F47C7F596BC4F3051038D0C1F383
:10579000CC0105F0010502F0030205FB01F1012A2D
:1057A00007EE901AB8EEE77A02D0022A4ED04AB33A
:1057B00007EE900A9FED2D5AF8EEE77A1B6BC5EEC7
:1057C000276ADFED2B5AC3F3080307EE903AB7EED2
:1057D000006AF8EEE77AE7EE257A77EE867A66EEEB
:1057E000A76A214B1B6BC3F34623013307EE903AA4
:1057F000B8EEE77AC6EE877AFCEEE77A17EE900A03
:1058000030BC70471A68920627D5196807EE900ACF
:10581000184AF7EE005A1B6BC1F3C101F8EEE77AA4
:105820009FED135AC3F30803CA4006EE903A06EE02
:10583000102AF8EEE66AB8EEC66AE7EE056A86EE6A
:10584000277A76EEA56A66EE876ACAE707EE900ABF
:105850009FED095AF8EEE77AB0E707EE900A9FED60
:10586000075AF8EEE77AA9E7004402580024744A80
:10587000000000390090D00320BCBE4B0024744CC3
:10588000002800F0E881F8B503680446D9072ED552
:10589000A4490A69896A02F03802102A00F00781D7
:1058A000182A00F0FF806368B3F5803F00F02A817A
:1058B000002B00F06881B3F5A02F9A4B1A6800F016
:1058C000698222F480321A601A6822F480221A60F7
:1058D000FCF7ECFF934E054605E0FCF7E7FF401BA5
:1058E000642800F24E8133689B03F6D523689D0738
:1058F00000F18A80D90633D58A4A1369926A03F087
:105900003803082B00F0E380182B00F0DB80E369FC
:10591000844D002B00F06F812B6843F080032B60D7
:10592000FCF7C4FF064605E0FCF7C0FF801B022819
:1059300000F227812B68DB05F6D5FCF7CFFF41F29B
:105940000303984200F24782226A6B68202A23F000
:10595000F8430CBF43F0804343EA82636B602368E3
:105960001D0716D563696F4D002B00F022816B6F08
:1059700043F001036B67FCF799FF064605E0FCF76F
:1059800095FF801B022800F2FC806B6F9807F6D50C
:1059900023689A0616D5A369624D002B00F01A8180
:1059A0002B6843F480532B60FCF780FF064605E02C
:1059B000FCF77CFF801B022800F2E3802B689F0429
:1059C000F6D52368590700F1A380606AD0B1554D20
:1059D0002B6903F03803182B00F0AE812B680228E6
:1059E00023F080732B6000F04281FCF75FFF0446D8
:1059F00005E0FCF75BFF001B022800F2C2802B6869
:105A00009B01F6D40020F8BD464A1369926A13F050
:105A100038032DD1434BE2681B68590701D5002A92
:105A20004ED0404D2B6823F0190313432B60FCF735
:105A30003DFF064605E0FCF739FF801B022800F217
:105A4000A0802B685B07F6D5FCF748FF41F2030303
:105A5000984200F2F78022696B68402A23F47C3375
:105A60000CBF43F4003343EA02336B60236841E721
:105A7000182B00F0E3802B4DE2682B68002A00F021
:105A8000CC8023F0190313432B60FCF70FFF06466D
:105A900004E0FCF70BFF801B022872D82B685F071D
:105AA000F7D5D1E701F0030102297FF4FCAE1D4ACE
:105AB000126892037FF51BAF6268002A7FF417AF6C
:105AC0000120F8BD02F00302012A7FF420AF154B3C
:105AD0001B68DA0502D5E369802BF1D1FCF7FEFEE5
